{
  "contractName": "MultiSigWallet",
  "abi": [
    {
      "inputs": [
        {
          "internalType": "address[]",
          "name": "_owners",
          "type": "address[]"
        },
        {
          "internalType": "uint256",
          "name": "_numConfirmationsRequired",
          "type": "uint256"
        }
      ],
      "stateMutability": "nonpayable",
      "type": "constructor"
    },
    {
      "anonymous": false,
      "inputs": [
        {
          "indexed": true,
          "internalType": "address",
          "name": "owner",
          "type": "address"
        },
        {
          "indexed": true,
          "internalType": "uint256",
          "name": "txIndex",
          "type": "uint256"
        }
      ],
      "name": "ConfirmTransaction",
      "type": "event"
    },
    {
      "anonymous": false,
      "inputs": [
        {
          "indexed": true,
          "internalType": "address",
          "name": "sender",
          "type": "address"
        },
        {
          "indexed": false,
          "internalType": "uint256",
          "name": "amount",
          "type": "uint256"
        },
        {
          "indexed": false,
          "internalType": "uint256",
          "name": "balance",
          "type": "uint256"
        }
      ],
      "name": "Deposit",
      "type": "event"
    },
    {
      "anonymous": false,
      "inputs": [
        {
          "indexed": true,
          "internalType": "address",
          "name": "owner",
          "type": "address"
        },
        {
          "indexed": true,
          "internalType": "uint256",
          "name": "txIndex",
          "type": "uint256"
        }
      ],
      "name": "ExecuteTransaction",
      "type": "event"
    },
    {
      "anonymous": false,
      "inputs": [
        {
          "indexed": true,
          "internalType": "address",
          "name": "owner",
          "type": "address"
        },
        {
          "indexed": true,
          "internalType": "uint256",
          "name": "txIndex",
          "type": "uint256"
        }
      ],
      "name": "RevokeConfirmation",
      "type": "event"
    },
    {
      "anonymous": false,
      "inputs": [
        {
          "indexed": true,
          "internalType": "address",
          "name": "owner",
          "type": "address"
        },
        {
          "indexed": true,
          "internalType": "uint256",
          "name": "txIndex",
          "type": "uint256"
        },
        {
          "indexed": true,
          "internalType": "address",
          "name": "to",
          "type": "address"
        },
        {
          "indexed": false,
          "internalType": "uint256",
          "name": "value",
          "type": "uint256"
        },
        {
          "indexed": false,
          "internalType": "bytes",
          "name": "data",
          "type": "bytes"
        }
      ],
      "name": "SubmitTransaction",
      "type": "event"
    },
    {
      "inputs": [
        {
          "internalType": "uint256",
          "name": "",
          "type": "uint256"
        },
        {
          "internalType": "address",
          "name": "",
          "type": "address"
        }
      ],
      "name": "isConfirmed",
      "outputs": [
        {
          "internalType": "bool",
          "name": "",
          "type": "bool"
        }
      ],
      "stateMutability": "view",
      "type": "function",
      "constant": true
    },
    {
      "inputs": [
        {
          "internalType": "address",
          "name": "",
          "type": "address"
        }
      ],
      "name": "isOwner",
      "outputs": [
        {
          "internalType": "bool",
          "name": "",
          "type": "bool"
        }
      ],
      "stateMutability": "view",
      "type": "function",
      "constant": true
    },
    {
      "inputs": [],
      "name": "numConfirmationsRequired",
      "outputs": [
        {
          "internalType": "uint256",
          "name": "",
          "type": "uint256"
        }
      ],
      "stateMutability": "view",
      "type": "function",
      "constant": true
    },
    {
      "inputs": [
        {
          "internalType": "uint256",
          "name": "",
          "type": "uint256"
        }
      ],
      "name": "owners",
      "outputs": [
        {
          "internalType": "address",
          "name": "",
          "type": "address"
        }
      ],
      "stateMutability": "view",
      "type": "function",
      "constant": true
    },
    {
      "inputs": [
        {
          "internalType": "uint256",
          "name": "",
          "type": "uint256"
        }
      ],
      "name": "transactions",
      "outputs": [
        {
          "internalType": "address",
          "name": "to",
          "type": "address"
        },
        {
          "internalType": "uint256",
          "name": "value",
          "type": "uint256"
        },
        {
          "internalType": "bytes",
          "name": "data",
          "type": "bytes"
        },
        {
          "internalType": "bool",
          "name": "executed",
          "type": "bool"
        },
        {
          "internalType": "uint256",
          "name": "numConfirmations",
          "type": "uint256"
        }
      ],
      "stateMutability": "view",
      "type": "function",
      "constant": true
    },
    {
      "stateMutability": "payable",
      "type": "receive",
      "payable": true
    },
    {
      "inputs": [
        {
          "internalType": "address",
          "name": "_to",
          "type": "address"
        },
        {
          "internalType": "uint256",
          "name": "_value",
          "type": "uint256"
        },
        {
          "internalType": "bytes",
          "name": "_data",
          "type": "bytes"
        }
      ],
      "name": "submitTransaction",
      "outputs": [],
      "stateMutability": "nonpayable",
      "type": "function"
    },
    {
      "inputs": [
        {
          "internalType": "uint256",
          "name": "_txIndex",
          "type": "uint256"
        }
      ],
      "name": "confirmTransaction",
      "outputs": [],
      "stateMutability": "nonpayable",
      "type": "function"
    },
    {
      "inputs": [
        {
          "internalType": "uint256",
          "name": "_txIndex",
          "type": "uint256"
        }
      ],
      "name": "executeTransaction",
      "outputs": [],
      "stateMutability": "nonpayable",
      "type": "function"
    },
    {
      "inputs": [
        {
          "internalType": "uint256",
          "name": "_txIndex",
          "type": "uint256"
        }
      ],
      "name": "revokeConfirmation",
      "outputs": [],
      "stateMutability": "nonpayable",
      "type": "function"
    },
    {
      "inputs": [],
      "name": "getOwners",
      "outputs": [
        {
          "internalType": "address[]",
          "name": "",
          "type": "address[]"
        }
      ],
      "stateMutability": "view",
      "type": "function",
      "constant": true
    },
    {
      "inputs": [],
      "name": "getTransactionCount",
      "outputs": [
        {
          "internalType": "uint256",
          "name": "",
          "type": "uint256"
        }
      ],
      "stateMutability": "view",
      "type": "function",
      "constant": true
    },
    {
      "inputs": [
        {
          "internalType": "uint256",
          "name": "_txIndex",
          "type": "uint256"
        }
      ],
      "name": "getTransaction",
      "outputs": [
        {
          "internalType": "address",
          "name": "to",
          "type": "address"
        },
        {
          "internalType": "uint256",
          "name": "value",
          "type": "uint256"
        },
        {
          "internalType": "bytes",
          "name": "data",
          "type": "bytes"
        },
        {
          "internalType": "bool",
          "name": "executed",
          "type": "bool"
        },
        {
          "internalType": "uint256",
          "name": "numConfirmations",
          "type": "uint256"
        }
      ],
      "stateMutability": "view",
      "type": "function",
      "constant": true
    }
  ],
  "bytecode": "0x60806040523480156200001157600080fd5b506040516200250a3803806200250a8339818101604052810190620000379190620003c1565b60008251116200007e576040517f08c379a00000000000000000000000000000000000000000000000000000000081526004016200007590620004e5565b60405180910390fd5b60008111801562000090575081518111155b620000d2576040517f08c379a0000000000000000000000000000000000000000000000000000000008152600401620000c99062000529565b60405180910390fd5b60005b8251811015620002d5576000838281518110620000f757620000f6620006a5565b5b60200260200101519050600073ffffffffffffffffffffffffffffffffffffffff168173ffffffffffffffffffffffffffffffffffffffff16141562000174576040517f08c379a00000000000000000000000000000000000000000000000000000000081526004016200016b9062000507565b60405180910390fd5b600160008273ffffffffffffffffffffffffffffffffffffffff1673ffffffffffffffffffffffffffffffffffffffff16815260200190815260200160002060009054906101000a900460ff161562000204576040517f08c379a0000000000000000000000000000000000000000000000000000000008152600401620001fb90620004c3565b60405180910390fd5b60018060008373ffffffffffffffffffffffffffffffffffffffff1673ffffffffffffffffffffffffffffffffffffffff16815260200190815260200160002060006101000a81548160ff0219169083151502179055506000819080600181540180825580915050600190039060005260206000200160009091909190916101000a81548173ffffffffffffffffffffffffffffffffffffffff021916908373ffffffffffffffffffffffffffffffffffffffff160217905550508080620002cc9062000628565b915050620000d5565b5080600281905550505062000826565b6000620002fc620002f68462000574565b6200054b565b9050808382526020820190508285602086028201111562000322576200032162000708565b5b60005b858110156200035657816200033b888262000360565b84526020840193506020830192505060018101905062000325565b5050509392505050565b6000815190506200037181620007f2565b92915050565b600082601f8301126200038f576200038e62000703565b5b8151620003a1848260208601620002e5565b91505092915050565b600081519050620003bb816200080c565b92915050565b60008060408385031215620003db57620003da62000712565b5b600083015167ffffffffffffffff811115620003fc57620003fb6200070d565b5b6200040a8582860162000377565b92505060206200041d85828601620003aa565b9150509250929050565b600062000436601083620005a3565b9150620004438262000728565b602082019050919050565b60006200045d600f83620005a3565b91506200046a8262000751565b602082019050919050565b600062000484600d83620005a3565b915062000491826200077a565b602082019050919050565b6000620004ab602883620005a3565b9150620004b882620007a3565b604082019050919050565b60006020820190508181036000830152620004de8162000427565b9050919050565b6000602082019050818103600083015262000500816200044e565b9050919050565b60006020820190508181036000830152620005228162000475565b9050919050565b6000602082019050818103600083015262000544816200049c565b9050919050565b6000620005576200056a565b9050620005658282620005f2565b919050565b6000604051905090565b600067ffffffffffffffff821115620005925762000591620006d4565b5b602082029050602081019050919050565b600082825260208201905092915050565b6000620005c182620005c8565b9050919050565b600073ffffffffffffffffffffffffffffffffffffffff82169050919050565b6000819050919050565b620005fd8262000717565b810181811067ffffffffffffffff821117156200061f576200061e620006d4565b5b80604052505050565b60006200063582620005e8565b91507fffffffffffffffffffffffffffffffffffffffffffffffffffffffffffffffff8214156200066b576200066a62000676565b5b600182019050919050565b7f4e487b7100000000000000000000000000000000000000000000000000000000600052601160045260246000fd5b7f4e487b7100000000000000000000000000000000000000000000000000000000600052603260045260246000fd5b7f4e487b7100000000000000000000000000000000000000000000000000000000600052604160045260246000fd5b600080fd5b600080fd5b600080fd5b600080fd5b6000601f19601f8301169050919050565b7f6f776e6572206e6f7420756e6971756500000000000000000000000000000000600082015250565b7f6f776e6572732072657175697265640000000000000000000000000000000000600082015250565b7f696e76616c6964206f776e657200000000000000000000000000000000000000600082015250565b7f696e76616c6964206e756d626572206f6620726571756972656420636f6e666960008201527f726d6174696f6e73000000000000000000000000000000000000000000000000602082015250565b620007fd81620005b4565b81146200080957600080fd5b50565b6200081781620005e8565b81146200082357600080fd5b50565b611cd480620008366000396000f3fe6080604052600436106100ab5760003560e01c80639ace38c2116100645780639ace38c214610253578063a0e67e2b14610294578063c01a8c84146102bf578063c6427474146102e8578063d0549b8514610311578063ee22610b1461033c57610102565b8063025e7c271461010757806320ea8d86146101445780632e7700f01461016d5780632f54bf6e1461019857806333ea3dc8146101d557806380f59a651461021657610102565b36610102573373ffffffffffffffffffffffffffffffffffffffff167f90890809c654f11d6e72a28fa60149770a0d11ec6c92319d6ceb2bb0a4ea1a1534476040516100f89291906117f4565b60405180910390a2005b600080fd5b34801561011357600080fd5b5061012e60048036038101906101299190611334565b610365565b60405161013b9190611617565b60405180910390f35b34801561015057600080fd5b5061016b60048036038101906101669190611334565b6103a4565b005b34801561017957600080fd5b5061018261067e565b60405161018f91906117a9565b60405180910390f35b3480156101a457600080fd5b506101bf60048036038101906101ba9190611298565b61068b565b6040516101cc91906116ae565b60405180910390f35b3480156101e157600080fd5b506101fc60048036038101906101f79190611334565b6106ab565b60405161020d959493929190611632565b60405180910390f35b34801561022257600080fd5b5061023d60048036038101906102389190611361565b6107be565b60405161024a91906116ae565b60405180910390f35b34801561025f57600080fd5b5061027a60048036038101906102759190611334565b6107ed565b60405161028b959493929190611632565b60405180910390f35b3480156102a057600080fd5b506102a96108e8565b6040516102b6919061168c565b60405180910390f35b3480156102cb57600080fd5b506102e660048036038101906102e19190611334565b610976565b005b3480156102f457600080fd5b5061030f600480360381019061030a91906112c5565b610c53565b005b34801561031d57600080fd5b50610326610e5d565b60405161033391906117a9565b60405180910390f35b34801561034857600080fd5b50610363600480360381019061035e9190611334565b610e63565b005b6000818154811061037557600080fd5b906000526020600020016000915054906101000a900473ffffffffffffffffffffffffffffffffffffffff1681565b600160003373ffffffffffffffffffffffffffffffffffffffff1673ffffffffffffffffffffffffffffffffffffffff16815260200190815260200160002060009054906101000a900460ff16610430576040517f08c379a000000000000000000000000000000000000000000000000000000000815260040161042790611789565b60405180910390fd5b806004805490508110610478576040517f08c379a000000000000000000000000000000000000000000000000000000000815260040161046f906116e9565b60405180910390fd5b816004818154811061048d5761048c611ace565b5b906000526020600020906005020160030160009054906101000a900460ff16156104ec576040517f08c379a00000000000000000000000000000000000000000000000000000000081526004016104e390611729565b60405180910390fd5b60006004848154811061050257610501611ace565b5b906000526020600020906005020190506003600085815260200190815260200160002060003373ffffffffffffffffffffffffffffffffffffffff1673ffffffffffffffffffffffffffffffffffffffff16815260200190815260200160002060009054906101000a900460ff166105af576040517f08c379a00000000000000000000000000000000000000000000000000000000081526004016105a690611749565b60405180910390fd5b60018160040160008282546105c4919061194f565b9250508190555060006003600086815260200190815260200160002060003373ffffffffffffffffffffffffffffffffffffffff1673ffffffffffffffffffffffffffffffffffffffff16815260200190815260200160002060006101000a81548160ff021916908315150217905550833373ffffffffffffffffffffffffffffffffffffffff167ff0dca620e2e81f7841d07bcc105e1704fb01475b278a9d4c236e1c62945edd5560405160405180910390a350505050565b6000600480549050905090565b60016020528060005260406000206000915054906101000a900460ff1681565b60008060606000806000600487815481106106c9576106c8611ace565b5b906000526020600020906005020190508060000160009054906101000a900473ffffffffffffffffffffffffffffffffffffffff168160010154826002018360030160009054906101000a900460ff16846004015482805461072a90611a0d565b80601f016020809104026020016040519081016040528092919081815260200182805461075690611a0d565b80156107a35780601f10610778576101008083540402835291602001916107a3565b820191906000526020600020905b81548152906001019060200180831161078657829003601f168201915b50505050509250955095509550955095505091939590929450565b60036020528160005260406000206020528060005260406000206000915091509054906101000a900460ff1681565b600481815481106107fd57600080fd5b90600052602060002090600502016000915090508060000160009054906101000a900473ffffffffffffffffffffffffffffffffffffffff169080600101549080600201805461084c90611a0d565b80601f016020809104026020016040519081016040528092919081815260200182805461087890611a0d565b80156108c55780601f1061089a576101008083540402835291602001916108c5565b820191906000526020600020905b8154815290600101906020018083116108a857829003601f168201915b5050505050908060030160009054906101000a900460ff16908060040154905085565b6060600080548060200260200160405190810160405280929190818152602001828054801561096c57602002820191906000526020600020905b8160009054906101000a900473ffffffffffffffffffffffffffffffffffffffff1673ffffffffffffffffffffffffffffffffffffffff1681526020019060010190808311610922575b5050505050905090565b600160003373ffffffffffffffffffffffffffffffffffffffff1673ffffffffffffffffffffffffffffffffffffffff16815260200190815260200160002060009054906101000a900460ff16610a02576040517f08c379a00000000000000000000000000000000000000000000000000000000081526004016109f990611789565b60405180910390fd5b806004805490508110610a4a576040517f08c379a0000000000000000000000000000000000000000000000000000000008152600401610a41906116e9565b60405180910390fd5b8160048181548110610a5f57610a5e611ace565b5b906000526020600020906005020160030160009054906101000a900460ff1615610abe576040517f08c379a0000000000000000000000000000000000000000000000000000000008152600401610ab590611729565b60405180910390fd5b826003600082815260200190815260200160002060003373ffffffffffffffffffffffffffffffffffffffff1673ffffffffffffffffffffffffffffffffffffffff16815260200190815260200160002060009054906101000a900460ff1615610b5d576040517f08c379a0000000000000000000000000000000000000000000000000000000008152600401610b5490611709565b60405180910390fd5b600060048581548110610b7357610b72611ace565b5b906000526020600020906005020190506001816004016000828254610b9891906118f9565b9250508190555060016003600087815260200190815260200160002060003373ffffffffffffffffffffffffffffffffffffffff1673ffffffffffffffffffffffffffffffffffffffff16815260200190815260200160002060006101000a81548160ff021916908315150217905550843373ffffffffffffffffffffffffffffffffffffffff167f5cbe105e36805f7820e291f799d5794ff948af2a5f664e580382defb6339004160405160405180910390a35050505050565b600160003373ffffffffffffffffffffffffffffffffffffffff1673ffffffffffffffffffffffffffffffffffffffff16815260200190815260200160002060009054906101000a900460ff16610cdf576040517f08c379a0000000000000000000000000000000000000000000000000000000008152600401610cd690611789565b60405180910390fd5b6000600480549050905060046040518060a001604052808673ffffffffffffffffffffffffffffffffffffffff1681526020018581526020018481526020016000151581526020016000815250908060018154018082558091505060019003906000526020600020906005020160009091909190915060008201518160000160006101000a81548173ffffffffffffffffffffffffffffffffffffffff021916908373ffffffffffffffffffffffffffffffffffffffff160217905550602082015181600101556040820151816002019080519060200190610dc292919061115b565b5060608201518160030160006101000a81548160ff0219169083151502179055506080820151816004015550508373ffffffffffffffffffffffffffffffffffffffff16813373ffffffffffffffffffffffffffffffffffffffff167fd5a05bf70715ad82a09a756320284a1b54c9ff74cd0f8cce6219e79b563fe59d8686604051610e4f9291906117c4565b60405180910390a450505050565b60025481565b600160003373ffffffffffffffffffffffffffffffffffffffff1673ffffffffffffffffffffffffffffffffffffffff16815260200190815260200160002060009054906101000a900460ff16610eef576040517f08c379a0000000000000000000000000000000000000000000000000000000008152600401610ee690611789565b60405180910390fd5b806004805490508110610f37576040517f08c379a0000000000000000000000000000000000000000000000000000000008152600401610f2e906116e9565b60405180910390fd5b8160048181548110610f4c57610f4b611ace565b5b906000526020600020906005020160030160009054906101000a900460ff1615610fab576040517f08c379a0000000000000000000000000000000000000000000000000000000008152600401610fa290611729565b60405180910390fd5b600060048481548110610fc157610fc0611ace565b5b906000526020600020906005020190506002548160040154101561101a576040517f08c379a000000000000000000000000000000000000000000000000000000000815260040161101190611769565b60405180910390fd5b60018160030160006101000a81548160ff02191690831515021790555060008160000160009054906101000a900473ffffffffffffffffffffffffffffffffffffffff1673ffffffffffffffffffffffffffffffffffffffff1682600101548360020160405161108a9190611600565b60006040518083038185875af1925050503d80600081146110c7576040519150601f19603f3d011682016040523d82523d6000602084013e6110cc565b606091505b5050905080611110576040517f08c379a0000000000000000000000000000000000000000000000000000000008152600401611107906116c9565b60405180910390fd5b843373ffffffffffffffffffffffffffffffffffffffff167f5445f318f4f5fcfb66592e68e0cc5822aa15664039bd5f0ffde24c5a8142b1ac60405160405180910390a35050505050565b82805461116790611a0d565b90600052602060002090601f01602090048101928261118957600085556111d0565b82601f106111a257805160ff19168380011785556111d0565b828001600101855582156111d0579182015b828111156111cf5782518255916020019190600101906111b4565b5b5090506111dd91906111e1565b5090565b5b808211156111fa5760008160009055506001016111e2565b5090565b600061121161120c84611842565b61181d565b90508281526020810184848401111561122d5761122c611b31565b5b6112388482856119cb565b509392505050565b60008135905061124f81611c70565b92915050565b600082601f83011261126a57611269611b2c565b5b813561127a8482602086016111fe565b91505092915050565b60008135905061129281611c87565b92915050565b6000602082840312156112ae576112ad611b3b565b5b60006112bc84828501611240565b91505092915050565b6000806000606084860312156112de576112dd611b3b565b5b60006112ec86828701611240565b93505060206112fd86828701611283565b925050604084013567ffffffffffffffff81111561131e5761131d611b36565b5b61132a86828701611255565b9150509250925092565b60006020828403121561134a57611349611b3b565b5b600061135884828501611283565b91505092915050565b6000806040838503121561137857611377611b3b565b5b600061138685828601611283565b925050602061139785828601611240565b9150509250929050565b60006113ad83836113b9565b60208301905092915050565b6113c281611983565b82525050565b6113d181611983565b82525050565b60006113e282611898565b6113ec81856118bb565b93506113f783611873565b8060005b8381101561142857815161140f88826113a1565b975061141a836118ae565b9250506001810190506113fb565b5085935050505092915050565b61143e81611995565b82525050565b600061144f826118a3565b61145981856118cc565b93506114698185602086016119da565b61147281611b40565b840191505092915050565b6000815461148a81611a0d565b61149481866118dd565b945060018216600081146114af57600181146114c0576114f3565b60ff198316865281860193506114f3565b6114c985611883565b60005b838110156114eb578154818901526001820191506020810190506114cc565b838801955050505b50505092915050565b60006115096009836118e8565b915061151482611b51565b602082019050919050565b600061152c6011836118e8565b915061153782611b7a565b602082019050919050565b600061154f6014836118e8565b915061155a82611ba3565b602082019050919050565b60006115726013836118e8565b915061157d82611bcc565b602082019050919050565b60006115956010836118e8565b91506115a082611bf5565b602082019050919050565b60006115b86011836118e8565b91506115c382611c1e565b602082019050919050565b60006115db6009836118e8565b91506115e682611c47565b602082019050919050565b6115fa816119c1565b82525050565b600061160c828461147d565b915081905092915050565b600060208201905061162c60008301846113c8565b92915050565b600060a08201905061164760008301886113c8565b61165460208301876115f1565b81810360408301526116668186611444565b90506116756060830185611435565b61168260808301846115f1565b9695505050505050565b600060208201905081810360008301526116a681846113d7565b905092915050565b60006020820190506116c36000830184611435565b92915050565b600060208201905081810360008301526116e2816114fc565b9050919050565b600060208201905081810360008301526117028161151f565b9050919050565b6000602082019050818103600083015261172281611542565b9050919050565b6000602082019050818103600083015261174281611565565b9050919050565b6000602082019050818103600083015261176281611588565b9050919050565b60006020820190508181036000830152611782816115ab565b9050919050565b600060208201905081810360008301526117a2816115ce565b9050919050565b60006020820190506117be60008301846115f1565b92915050565b60006040820190506117d960008301856115f1565b81810360208301526117eb8184611444565b90509392505050565b600060408201905061180960008301856115f1565b61181660208301846115f1565b9392505050565b6000611827611838565b90506118338282611a3f565b919050565b6000604051905090565b600067ffffffffffffffff82111561185d5761185c611afd565b5b61186682611b40565b9050602081019050919050565b6000819050602082019050919050565b60008190508160005260206000209050919050565b600081519050919050565b600081519050919050565b6000602082019050919050565b600082825260208201905092915050565b600082825260208201905092915050565b600081905092915050565b600082825260208201905092915050565b6000611904826119c1565b915061190f836119c1565b9250827fffffffffffffffffffffffffffffffffffffffffffffffffffffffffffffffff0382111561194457611943611a70565b5b828201905092915050565b600061195a826119c1565b9150611965836119c1565b92508282101561197857611977611a70565b5b828203905092915050565b600061198e826119a1565b9050919050565b60008115159050919050565b600073ffffffffffffffffffffffffffffffffffffffff82169050919050565b6000819050919050565b82818337600083830152505050565b60005b838110156119f85780820151818401526020810190506119dd565b83811115611a07576000848401525b50505050565b60006002820490506001821680611a2557607f821691505b60208210811415611a3957611a38611a9f565b5b50919050565b611a4882611b40565b810181811067ffffffffffffffff82111715611a6757611a66611afd565b5b80604052505050565b7f4e487b7100000000000000000000000000000000000000000000000000000000600052601160045260246000fd5b7f4e487b7100000000000000000000000000000000000000000000000000000000600052602260045260246000fd5b7f4e487b7100000000000000000000000000000000000000000000000000000000600052603260045260246000fd5b7f4e487b7100000000000000000000000000000000000000000000000000000000600052604160045260246000fd5b600080fd5b600080fd5b600080fd5b600080fd5b6000601f19601f8301169050919050565b7f7478206661696c65640000000000000000000000000000000000000000000000600082015250565b7f747820646f6573206e6f74206578697374000000000000000000000000000000600082015250565b7f747820616c726561647920636f6e6669726d6564000000000000000000000000600082015250565b7f747820616c726561647920657865637574656400000000000000000000000000600082015250565b7f7478206e6f7420636f6e6669726d656400000000000000000000000000000000600082015250565b7f63616e6e6f742065786563757465207478000000000000000000000000000000600082015250565b7f6e6f74206f776e65720000000000000000000000000000000000000000000000600082015250565b611c7981611983565b8114611c8457600080fd5b50565b611c90816119c1565b8114611c9b57600080fd5b5056fea2646970667358221220e1930c315104a89eef27f7b8273b0da7c01b6036b219bce8d309ce3f05c0cd3f64736f6c63430008070033",
  "immutableReferences": {},
  "source": "// SPDX-License-Identifier: MIT\npragma solidity >=0.4.22 <0.9.0;\n\ncontract MultiSigWallet {\n    event Deposit(address indexed sender, uint amount, uint balance);\n    event SubmitTransaction(\n        address indexed owner,\n        uint indexed txIndex,\n        address indexed to,\n        uint value,\n        bytes data\n    );\n    event ConfirmTransaction(address indexed owner, uint indexed txIndex);\n    event RevokeConfirmation(address indexed owner, uint indexed txIndex);\n    event ExecuteTransaction(address indexed owner, uint indexed txIndex);\n\n    address[] public owners;\n    mapping(address => bool) public isOwner;\n    uint public numConfirmationsRequired;\n\n    struct Transaction {\n        address to;\n        uint value;\n        bytes data;\n        bool executed;\n        uint numConfirmations;\n    }\n\n    // mapping from tx index => owner => bool\n    mapping(uint => mapping(address => bool)) public isConfirmed;\n\n    Transaction[] public transactions;\n\n    modifier onlyOwner() {\n        require(isOwner[msg.sender], \"not owner\");\n        _;\n    }\n\n    modifier txExists(uint _txIndex) {\n        require(_txIndex < transactions.length, \"tx does not exist\");\n        _;\n    }\n\n    modifier notExecuted(uint _txIndex) {\n        require(!transactions[_txIndex].executed, \"tx already executed\");\n        _;\n    }\n\n    modifier notConfirmed(uint _txIndex) {\n        require(!isConfirmed[_txIndex][msg.sender], \"tx already confirmed\");\n        _;\n    }\n\n    /*\n    Exercise\n    1. Validate that the _owner is not empty\n    2. Validate that _numConfirmationsRequired is greater than 0\n    3. Validate that _numConfirmationsRequired is less than or equal to the number of _owners\n    4. Set the state variables owners from the input _owners.\n        - each owner should not be the zero address\n        - validate that the owners are unique using the isOwner mapping\n    5. Set the state variable numConfirmationsRequired from the input.\n    */\n    constructor(address[] memory _owners, uint _numConfirmationsRequired) {\n        require(_owners.length > 0, \"owners required\");\n        require(\n            _numConfirmationsRequired > 0 &&\n                _numConfirmationsRequired <= _owners.length,\n            \"invalid number of required confirmations\"\n        );\n\n        for (uint i = 0; i < _owners.length; i++) {\n            address owner = _owners[i];\n\n            require(owner != address(0), \"invalid owner\");\n            require(!isOwner[owner], \"owner not unique\");\n\n            isOwner[owner] = true;\n            owners.push(owner);\n        }\n\n        numConfirmationsRequired = _numConfirmationsRequired;\n    }\n\n    receive() external payable {\n        emit Deposit(msg.sender, msg.value, address(this).balance);\n    }\n\n    function submitTransaction(\n        address _to,\n        uint _value,\n        bytes memory _data\n    ) public onlyOwner {\n        uint txIndex = transactions.length;\n\n        transactions.push(\n            Transaction({\n                to: _to,\n                value: _value,\n                data: _data,\n                executed: false,\n                numConfirmations: 0\n            })\n        );\n\n        emit SubmitTransaction(msg.sender, txIndex, _to, _value, _data);\n    }\n\n    /* Exercise\n    1. Complete the modifier txExists\n        - it should require that the transaction at txIndex exists\n    2. Complete the modifier notExecuted\n        - it should require that the transaction at txIndex is not yet executed\n    3. Complete the modifier notConfirmed\n        - it should require that the transaction at txIndex is not yet\n          confirmed by msg.sender\n    4. Confirm the transaction\n        - update the isConfirmed to true for msg.sender\n        - increment numConfirmation by 1\n        - emit ConfirmTransaction event for the transaction being confirmed\n    */\n    function confirmTransaction(uint _txIndex)\n        public\n        onlyOwner\n        txExists(_txIndex)\n        notExecuted(_txIndex)\n        notConfirmed(_txIndex)\n    {\n        Transaction storage transaction = transactions[_txIndex];\n        transaction.numConfirmations += 1;\n        isConfirmed[_txIndex][msg.sender] = true;\n\n        emit ConfirmTransaction(msg.sender, _txIndex);\n    }\n\n    /* Exercise\n    1. Execute the transaction\n        - it should require that number of confirmations >= numConfirmationsRequired\n        - set executed to true\n        - execute the transaction using the low level call method\n        - require that the transaction executed successfully\n        - emit ExecuteTransaction\n    */\n    function executeTransaction(uint _txIndex)\n        public\n        onlyOwner\n        txExists(_txIndex)\n        notExecuted(_txIndex)\n    {\n        Transaction storage transaction = transactions[_txIndex];\n\n        require(\n            transaction.numConfirmations >= numConfirmationsRequired,\n            \"cannot execute tx\"\n        );\n\n        transaction.executed = true;\n\n        (bool success, ) = transaction.to.call{value: transaction.value}(\n            transaction.data\n        );\n        require(success, \"tx failed\");\n\n        emit ExecuteTransaction(msg.sender, _txIndex);\n    }\n\n    /* Exercise\n    1. Add appropriate modifiers\n        - only owner should be able to call this function\n        - transaction at _txIndex must exist\n        - transaction at _txIndex must be executed\n    2. Revoke the confirmation\n        - require that msg.sender has confirmed the transaction\n        - set isConfirmed to false for msg.sender\n        - decrement numConfirmations by 1\n        - emit RevokeConfirmation\n    */\n    function revokeConfirmation(uint _txIndex)\n        public\n        onlyOwner\n        txExists(_txIndex)\n        notExecuted(_txIndex)\n    {\n        Transaction storage transaction = transactions[_txIndex];\n\n        require(isConfirmed[_txIndex][msg.sender], \"tx not confirmed\");\n\n        transaction.numConfirmations -= 1;\n        isConfirmed[_txIndex][msg.sender] = false;\n\n        emit RevokeConfirmation(msg.sender, _txIndex);\n    }\n\n    function getOwners() public view returns (address[] memory) {\n        return owners;\n    }\n\n    function getTransactionCount() public view returns (uint) {\n        return transactions.length;\n    }\n\n    function getTransaction(uint _txIndex)\n        public\n        view\n        returns (\n            address to,\n            uint value,\n            bytes memory data,\n            bool executed,\n            uint numConfirmations\n        )\n    {\n        Transaction storage transaction = transactions[_txIndex];\n\n        return (\n            transaction.to,\n            transaction.value,\n            transaction.data,\n            transaction.executed,\n            transaction.numConfirmations\n        );\n    }\n}\n",
  "sourcePath": "/home/dex/smart-contracts/smart-contract-test/contracts/MultiSigWallet.sol",
  "compiler": {
    "name": "solc",
    "version": "0.8.7+commit.e28d00a7.Emscripten.clang"
  },
  "schemaVersion": "3.4.3",
  "updatedAt": "2021-08-26T15:23:22.542Z",
  "networkType": "ethereum",
  "devdoc": {
    "kind": "dev",
    "methods": {},
    "version": 1
  },
  "userdoc": {
    "kind": "user",
    "methods": {},
    "version": 1
  }
}