{
  "contractName": "MultiSig",
  "abi": [
    {
      "inputs": [
        {
          "internalType": "bytes32",
          "name": "_idE",
          "type": "bytes32"
        },
        {
          "internalType": "uint256",
          "name": "_deadline",
          "type": "uint256"
        },
        {
          "internalType": "uint256",
          "name": "_index",
          "type": "uint256"
        },
        {
          "internalType": "bytes32",
          "name": "_hashContract",
          "type": "bytes32"
        },
        {
          "internalType": "address[]",
          "name": "_signatories",
          "type": "address[]"
        },
        {
          "internalType": "bytes[]",
          "name": "_signatures",
          "type": "bytes[]"
        }
      ],
      "name": "finish",
      "outputs": [
        {
          "internalType": "string",
          "name": "",
          "type": "string"
        }
      ],
      "stateMutability": "nonpayable",
      "type": "function"
    },
    {
      "inputs": [
        {
          "internalType": "bytes32",
          "name": "_idE",
          "type": "bytes32"
        }
      ],
      "name": "query",
      "outputs": [
        {
          "internalType": "string",
          "name": "",
          "type": "string"
        },
        {
          "internalType": "bytes[]",
          "name": "",
          "type": "bytes[]"
        }
      ],
      "stateMutability": "view",
      "type": "function"
    }
  ],
  "bytecode": "0x608060405234801561001057600080fd5b50611527806100206000396000f3fe608060405234801561001057600080fd5b50600436106100365760003560e01c80636ed5547b1461003b578063a3b61a9c1461006b575b600080fd5b61005560048036038101906100509190610a4f565b61009c565b6040516100629190610e90565b60405180910390f35b61008560048036038101906100809190610a22565b610411565b604051610093929190610eb2565b60405180910390f35b606060008088815260200190815260200160002060030160009054906101000a900460ff1615610101576040517f08c379a00000000000000000000000000000000000000000000000000000000081526004016100f890610f09565b60405180910390fd5b85421115610144576040517f08c379a000000000000000000000000000000000000000000000000000000000815260040161013b90610f29565b60405180910390fd5b3373ffffffffffffffffffffffffffffffffffffffff1683868151811061016e5761016d6112b2565b5b602002602001015173ffffffffffffffffffffffffffffffffffffffff16146101cc576040517f08c379a00000000000000000000000000000000000000000000000000000000081526004016101c390610f69565b60405180910390fd5b6000848488306040516020016101e59493929190610da6565b60405160208183030381529060405280519060200120905087811461023f576040517f08c379a000000000000000000000000000000000000000000000000000000000815260040161023690610f49565b60405180910390fd5b60008186868a3060405160200161025a959493929190610df0565b60405160208183030381529060405280519060200120905060005b855181101561036a576000868281518110610293576102926112b2565b5b6020026020010151905060008683815181106102b2576102b16112b2565b5b602002602001015190506102c784838361068c565b610306576040517f08c379a00000000000000000000000000000000000000000000000000000000081526004016102fd90610ee9565b60405180910390fd5b6000808d815260200190815260200160002060020181908060018154018082558091505060019003906000526020600020016000909190919091509080519060200190610354929190610776565b5050508080610362906111d3565b915050610275565b50856000808b815260200190815260200160002060000181905550876000808b81526020019081526020016000206001018190555060016000808b815260200190815260200160002060030160006101000a81548160ff0219169083151502179055506040518060400160405280601381526020017f20436f6e74726163742066696e69736865642000000000000000000000000000815250925050509695505050505050565b60608060008084815260200190815260200160002060030160009054906101000a900460ff16610563576000808481526020019081526020016000206002016040518060400160405280601681526020017f20436f6e747261637420646f65736e74206578697374000000000000000000008152509080805480602002602001604051908101604052809291908181526020016000905b828210156105545783829060005260206000200180546104c790611170565b80601f01602080910402602001604051908101604052809291908181526020018280546104f390611170565b80156105405780601f1061051557610100808354040283529160200191610540565b820191906000526020600020905b81548152906001019060200180831161052357829003601f168201915b5050505050815260200190600101906104a8565b50505050905091509150610687565b6000808481526020019081526020016000206002016040518060400160405280601281526020017f20436f6e74726163742066696e697368656400000000000000000000000000008152509080805480602002602001604051908101604052809291908181526020016000905b8282101561067c5783829060005260206000200180546105ef90611170565b80601f016020809104026020016040519081016040528092919081815260200182805461061b90611170565b80156106685780601f1061063d57610100808354040283529160200191610668565b820191906000526020600020905b81548152906001019060200180831161064b57829003601f168201915b5050505050815260200190600101906105d0565b505050509050915091505b915091565b60008273ffffffffffffffffffffffffffffffffffffffff166106af85846106cf565b73ffffffffffffffffffffffffffffffffffffffff161490509392505050565b6000806000806106de85610744565b8093508194508295505050506001868484846040516000815260200160405260405161070d9493929190610e4b565b6020604051602081039080840390855afa15801561072f573d6000803e3d6000fd5b50505060206040510351935050505092915050565b6000806000604184511461075757600080fd5b6020840151915060408401519050606084015160001a92509193909250565b82805461078290611170565b90600052602060002090601f0160209004810192826107a457600085556107eb565b82601f106107bd57805160ff19168380011785556107eb565b828001600101855582156107eb579182015b828111156107ea5782518255916020019190600101906107cf565b5b5090506107f891906107fc565b5090565b5b808211156108155760008160009055506001016107fd565b5090565b600061082c61082784610fae565b610f89565b9050808382526020820190508285602086028201111561084f5761084e611315565b5b60005b8581101561087f57816108658882610959565b845260208401935060208301925050600181019050610852565b5050509392505050565b600061089c61089784610fda565b610f89565b905080838252602082019050828560208602820111156108bf576108be611315565b5b60005b8581101561090d57813567ffffffffffffffff8111156108e5576108e4611310565b5b8086016108f289826109df565b855260208501945060208401935050506001810190506108c2565b5050509392505050565b600061092a61092584611006565b610f89565b9050828152602081018484840111156109465761094561131a565b5b61095184828561112e565b509392505050565b600081359050610968816114ac565b92915050565b600082601f83011261098357610982611310565b5b8135610993848260208601610819565b91505092915050565b600082601f8301126109b1576109b0611310565b5b81356109c1848260208601610889565b91505092915050565b6000813590506109d9816114c3565b92915050565b600082601f8301126109f4576109f3611310565b5b8135610a04848260208601610917565b91505092915050565b600081359050610a1c816114da565b92915050565b600060208284031215610a3857610a37611324565b5b6000610a46848285016109ca565b91505092915050565b60008060008060008060c08789031215610a6c57610a6b611324565b5b6000610a7a89828a016109ca565b9650506020610a8b89828a01610a0d565b9550506040610a9c89828a01610a0d565b9450506060610aad89828a016109ca565b935050608087013567ffffffffffffffff811115610ace57610acd61131f565b5b610ada89828a0161096e565b92505060a087013567ffffffffffffffff811115610afb57610afa61131f565b5b610b0789828a0161099c565b9150509295509295509295565b6000610b208383610b40565b60208301905092915050565b6000610b388383610c5f565b905092915050565b610b49816110db565b82525050565b610b60610b5b826110db565b61121c565b82525050565b6000610b7182611057565b610b7b818561109d565b9350610b8683611037565b8060005b83811015610bb7578151610b9e8882610b14565b9750610ba983611083565b925050600181019050610b8a565b5085935050505092915050565b6000610bcf82611062565b610bd981856110a8565b935083602082028501610beb85611047565b8060005b85811015610c275784840389528151610c088582610b2c565b9450610c1383611090565b925060208a01995050600181019050610bef565b50829750879550505050505092915050565b610c42816110ed565b82525050565b610c59610c54826110ed565b61122e565b82525050565b6000610c6a8261106d565b610c7481856110b9565b9350610c8481856020860161113d565b610c8d81611329565b840191505092915050565b6000610ca382611078565b610cad81856110ca565b9350610cbd81856020860161113d565b610cc681611329565b840191505092915050565b6000610cde602a836110ca565b9150610ce982611347565b604082019050919050565b6000610d01601a836110ca565b9150610d0c82611396565b602082019050919050565b6000610d246026836110ca565b9150610d2f826113bf565b604082019050919050565b6000610d476022836110ca565b9150610d528261140e565b604082019050919050565b6000610d6a602a836110ca565b9150610d758261145d565b604082019050919050565b610d91610d8c82611117565b61124a565b82525050565b610da081611121565b82525050565b6000610db28287610c48565b602082019150610dc28286610b66565b9150610dce8285610d80565b602082019150610dde8284610b4f565b60148201915081905095945050505050565b6000610dfc8288610c48565b602082019150610e0c8287610c48565b602082019150610e1c8286610b66565b9150610e288285610d80565b602082019150610e388284610b4f565b6014820191508190509695505050505050565b6000608082019050610e606000830187610c39565b610e6d6020830186610d97565b610e7a6040830185610c39565b610e876060830184610c39565b95945050505050565b60006020820190508181036000830152610eaa8184610c98565b905092915050565b60006040820190508181036000830152610ecc8185610c98565b90508181036020830152610ee08184610bc4565b90509392505050565b60006020820190508181036000830152610f0281610cd1565b9050919050565b60006020820190508181036000830152610f2281610cf4565b9050919050565b60006020820190508181036000830152610f4281610d17565b9050919050565b60006020820190508181036000830152610f6281610d3a565b9050919050565b60006020820190508181036000830152610f8281610d5d565b9050919050565b6000610f93610fa4565b9050610f9f82826111a2565b919050565b6000604051905090565b600067ffffffffffffffff821115610fc957610fc86112e1565b5b602082029050602081019050919050565b600067ffffffffffffffff821115610ff557610ff46112e1565b5b602082029050602081019050919050565b600067ffffffffffffffff821115611021576110206112e1565b5b61102a82611329565b9050602081019050919050565b6000819050602082019050919050565b6000819050602082019050919050565b600081519050919050565b600081519050919050565b600081519050919050565b600081519050919050565b6000602082019050919050565b6000602082019050919050565b600081905092915050565b600082825260208201905092915050565b600082825260208201905092915050565b600082825260208201905092915050565b60006110e6826110f7565b9050919050565b6000819050919050565b600073ffffffffffffffffffffffffffffffffffffffff82169050919050565b6000819050919050565b600060ff82169050919050565b82818337600083830152505050565b60005b8381101561115b578082015181840152602081019050611140565b8381111561116a576000848401525b50505050565b6000600282049050600182168061118857607f821691505b6020821081141561119c5761119b611283565b5b50919050565b6111ab82611329565b810181811067ffffffffffffffff821117156111ca576111c96112e1565b5b80604052505050565b60006111de82611117565b91507fffffffffffffffffffffffffffffffffffffffffffffffffffffffffffffffff82141561121157611210611254565b5b600182019050919050565b600061122782611238565b9050919050565b6000819050919050565b60006112438261133a565b9050919050565b6000819050919050565b7f4e487b7100000000000000000000000000000000000000000000000000000000600052601160045260246000fd5b7f4e487b7100000000000000000000000000000000000000000000000000000000600052602260045260246000fd5b7f4e487b7100000000000000000000000000000000000000000000000000000000600052603260045260246000fd5b7f4e487b7100000000000000000000000000000000000000000000000000000000600052604160045260246000fd5b600080fd5b600080fd5b600080fd5b600080fd5b600080fd5b6000601f19601f8301169050919050565b60008160601b9050919050565b7f436f6e7472616374206e6f742066696e6973686564202d20496e76616c69642060008201527f7369676e61747572652000000000000000000000000000000000000000000000602082015250565b7f436f6e747261637420616c72656164792066696e697368656420000000000000600082015250565b7f436f6e7472616374206e6f742066696e6973686564202d2054696d652065786360008201527f6565646564200000000000000000000000000000000000000000000000000000602082015250565b7f20436f6e7472616374206e6f742066696e6973686564202d2057726f6e67206960008201527f6445000000000000000000000000000000000000000000000000000000000000602082015250565b7f436f6e7472616374206e6f742066696e6973686564202d20496e76616c69642060008201527f7369676e61746f72792000000000000000000000000000000000000000000000602082015250565b6114b5816110db565b81146114c057600080fd5b50565b6114cc816110ed565b81146114d757600080fd5b50565b6114e381611117565b81146114ee57600080fd5b5056fea26469706673582212204105b06cd561c1632cda5e92512079e185b7b7f0d9f3e0145012812e06e2072e64736f6c63430008070033",
  "immutableReferences": {},
  "source": "pragma solidity >=0.4.22 <0.9.0;\n\n/*We define a data structure (struct Contract) to store the data associated with each contract\n(the hash of the contract, finish deadline, signatures, and status of the contract) and indexed\nby idE . All these data are provided by the signatory who calls the f inish function and are\nverified by the SC before establishing its status (as explained below). A new data structure\nis created for each multi-party contract signing that requires the SC to be called. Note that\nno confidential data are stored in the SC data structure; that is, the content of the contract,\nM, cannot be recovered by anyone from the signatures or the stored hash of the contract.*/\n\ncontract MultiSig {\n    /*Data structure associated with each exchange identifier (idE ) requiring the use of\n    the blockchain */\n    struct Contract{\n        bytes32 hashContract;\n        uint deadline;\n        bytes [] signatures;\n        bool finished;\n    }\n\n    mapping(bytes32 => Contract) exchanges;\n\n    //Code of the finish function\n    /* finish: given a contract identifier, any signatory can provide all signatures on the \n    contract, before it expires, establishing the status of the contract as finished. */\n    function finish(bytes32 _idE, uint _deadline, uint _index, bytes32 _hashContract, \n    address[] memory _signatories, bytes[] memory _signatures) public returns (string memory) {\n\n        require(! exchanges[_idE].finished, \"Contract already finished \");\n        require(block.timestamp <= _deadline, \"Contract not finished - Time exceeded \");\n        require( _signatories[_index] == msg.sender, \"Contract not finished - Invalid signatory \");\n        bytes32 idE = keccak256(abi.encodePacked(_hashContract, _signatories, _deadline, address(this)));\n        require(idE == _idE,\" Contract not finished - Wrong idE\");\n        bytes32 htosign = keccak256(abi.encodePacked(idE, _hashContract, _signatories, _deadline, address(this)));\n\n        for(uint i = 0; i < _signatories.length; i++){\n            address signatory = _signatories[i];\n            bytes memory signature = _signatures[i];\n            require(isValidData(htosign , signatory , signature),\n            \"Contract not finished - Invalid signature \");\n            exchanges[_idE].signatures.push(signature);\n        }\n        exchanges[_idE].hashContract = _hashContract;\n        exchanges[_idE].deadline=_deadline;\n        exchanges[_idE].finished=true;\n        return (\" Contract finished \");\n    }\n\n    //Verifying the contract signature for each signatory\n    function isValidData(bytes32 _htosign, address _signer, bytes memory _signature) \n    private pure returns(bool){\n        return(recoverSigner(_htosign, _signature) == _signer);\n    }\n\n\n    /// signature methods.\n    function splitSignature(bytes memory sig)internal pure returns (uint8 v, bytes32 r, bytes32 s) {\n        require(sig.length == 65);\n        assembly {\n            // first 32 bytes, after the length prefix.\n            r := mload(add(sig, 32))\n            // second 32 bytes.\n            s := mload(add(sig, 64))\n            // final byte (first byte of the next 32 bytes).\n            v := byte(0, mload(add(sig, 96)))\n        }\n        return (v, r, s);\n    }\n    ///\n    function recoverSigner(bytes32 resumen, bytes memory sig) private pure returns (address) {\n        uint8 v;\n        bytes32 r;\n        bytes32 s;\n\n        (v, r, s) = splitSignature(sig);\n        return ecrecover(resumen, v, r, s);\n    }\n\n    //Code of the query function.\n    /* query: given a contract identifier, any signatory may check the status of the con-\n    tract, obtaining all signatures if the contract was previously finished by one of the\n    signatories. */\n    function query(bytes32 _idE) public view returns (string memory, bytes [] memory) {\n        if(! exchanges[_idE].finished){\n            return (\" Contract doesnt exist\",exchanges[_idE].signatures);\n        }\n        return (\" Contract finished\",exchanges[_idE].signatures);\n    }\n\n}\n",
  "sourcePath": "/home/dex/smart-contracts/smart-contract-test/contracts/MultiSig_forContract.sol",
  "compiler": {
    "name": "solc",
    "version": "0.8.7+commit.e28d00a7.Emscripten.clang"
  },
  "schemaVersion": "3.4.3",
  "updatedAt": "2021-08-28T17:08:40.615Z",
  "devdoc": {
    "kind": "dev",
    "methods": {},
    "version": 1
  },
  "userdoc": {
    "kind": "user",
    "methods": {},
    "version": 1
  }
}